{
    "abi": [
        {
            "type": "function",
            "name": "deploySBT",
            "inputs": [
                {
                    "name": "_contractName",
                    "type": "string",
                    "internalType": "string"
                },
                {
                    "name": "_uri",
                    "type": "string",
                    "internalType": "string"
                },
                {
                    "name": "_ids",
                    "type": "uint256[]",
                    "internalType": "uint256[]"
                },
                {
                    "name": "_names",
                    "type": "string[]",
                    "internalType": "string[]"
                },
                {
                    "name": "_fees",
                    "type": "uint256[]",
                    "internalType": "uint256[]"
                },
                {
                    "name": "_maxSupplies",
                    "type": "uint256[]",
                    "internalType": "uint256[]"
                }
            ],
            "outputs": [
                {
                    "name": "",
                    "type": "address",
                    "internalType": "address"
                }
            ],
            "stateMutability": "nonpayable"
        },
        {
            "type": "function",
            "name": "getSBTByIndex",
            "inputs": [
                {
                    "name": "_index",
                    "type": "uint256",
                    "internalType": "uint256"
                }
            ],
            "outputs": [
                {
                    "name": "contractAddress",
                    "type": "address",
                    "internalType": "address"
                },
                {
                    "name": "owner",
                    "type": "address",
                    "internalType": "address"
                },
                {
                    "name": "contractName",
                    "type": "string",
                    "internalType": "string"
                },
                {
                    "name": "baseURI",
                    "type": "string",
                    "internalType": "string"
                }
            ],
            "stateMutability": "view"
        },
        {
            "type": "function",
            "name": "getSBTDetailsbyIndexAndId",
            "inputs": [
                {
                    "name": "_index",
                    "type": "uint256",
                    "internalType": "uint256"
                },
                {
                    "name": "_id",
                    "type": "uint256",
                    "internalType": "uint256"
                }
            ],
            "outputs": [
                {
                    "name": "_contract",
                    "type": "address",
                    "internalType": "address"
                },
                {
                    "name": "_owner",
                    "type": "address",
                    "internalType": "address"
                },
                {
                    "name": "_uri",
                    "type": "string",
                    "internalType": "string"
                },
                {
                    "name": "_name",
                    "type": "string",
                    "internalType": "string"
                },
                {
                    "name": "_mintFee",
                    "type": "uint256",
                    "internalType": "uint256"
                },
                {
                    "name": "_maxSupply",
                    "type": "uint256",
                    "internalType": "uint256"
                },
                {
                    "name": "_supply",
                    "type": "uint256",
                    "internalType": "uint256"
                }
            ],
            "stateMutability": "view"
        },
        {
            "type": "function",
            "name": "indexToContract",
            "inputs": [
                {
                    "name": "",
                    "type": "uint256",
                    "internalType": "uint256"
                }
            ],
            "outputs": [
                {
                    "name": "",
                    "type": "address",
                    "internalType": "address"
                }
            ],
            "stateMutability": "view"
        },
        {
            "type": "function",
            "name": "indexToOwner",
            "inputs": [
                {
                    "name": "",
                    "type": "uint256",
                    "internalType": "uint256"
                }
            ],
            "outputs": [
                {
                    "name": "",
                    "type": "address",
                    "internalType": "address"
                }
            ],
            "stateMutability": "view"
        },
        {
            "type": "function",
            "name": "tokens",
            "inputs": [
                {
                    "name": "",
                    "type": "uint256",
                    "internalType": "uint256"
                }
            ],
            "outputs": [
                {
                    "name": "",
                    "type": "address",
                    "internalType": "contract SoulBoundToken"
                }
            ],
            "stateMutability": "view"
        },
        {
            "type": "event",
            "name": "SBTCreated",
            "inputs": [
                {
                    "name": "_owner",
                    "type": "address",
                    "indexed": false,
                    "internalType": "address"
                },
                {
                    "name": "_token_contract",
                    "type": "address",
                    "indexed": false,
                    "internalType": "address"
                },
                {
                    "name": "_contractName",
                    "type": "string",
                    "indexed": false,
                    "internalType": "string"
                },
                {
                    "name": "_uri",
                    "type": "string",
                    "indexed": false,
                    "internalType": "string"
                }
            ],
            "anonymous": false
        }
    ],
    "bytecode": {
        "object": "0x6080604052348015600f57600080fd5b5061388d8061001f6000396000f3fe608060405234801561001057600080fd5b50600436106100625760003560e01c80634f64b2be146100675780635b949a3f14610097578063659eb45c146100bd578063ba535b8e146100d0578063cd78aefb146100f9578063cdb3d48314610122575b600080fd5b61007a61007536600461064e565b610145565b6040516001600160a01b0390911681526020015b60405180910390f35b6100aa6100a5366004610667565b61016f565b60405161008e97969594939291906106d9565b61007a6100cb366004610933565b61030c565b61007a6100de36600461064e565b6001602052600090815260409020546001600160a01b031681565b61007a61010736600461064e565b6002602052600090815260409020546001600160a01b031681565b61013561013036600461064e565b6104c8565b60405161008e9493929190610a28565b6000818154811061015557600080fd5b6000918252602090912001546001600160a01b0316905081565b60008060608060008060008060008a8154811061018e5761018e610a71565b600091825260208220015460405163b09afec160e01b8152600481018c90526001600160a01b039091169250829063b09afec190602401600060405180830381865afa1580156101e2573d6000803e3d6000fd5b505050506040513d6000823e601f3d908101601f1916820160405261020a9190810190610ad4565b905081826001600160a01b0316638da5cb5b6040518163ffffffff1660e01b8152600401602060405180830381865afa15801561024b573d6000803e3d6000fd5b505050506040513d601f19601f8201168201806040525081019061026f9190610b6c565b6040516303a24d0760e21b8152600481018d90526001600160a01b03851690630e89341c90602401600060405180830381865afa1580156102b4573d6000803e3d6000fd5b505050506040513d6000823e601f3d908101601f191682016040526102dc9190810190610b9c565b83600001518460400151856060015186608001519850985098509850985098509850505092959891949750929550565b60008087878688878760405161032190610641565b61033096959493929190610c0d565b604051809103906000f08015801561034c573d6000803e3d6000fd5b5060405163f2fde38b60e01b81523360048201529091506001600160a01b0382169063f2fde38b90602401600060405180830381600087803b15801561039157600080fd5b505af11580156103a5573d6000803e3d6000fd5b505060008054600180820183558280527f290decd9548b62a8d60345a988386fc84ba6bc95484008f6362f93160ef3e56390910180546001600160a01b0319166001600160a01b0387161790558154859450909250610405908390610cd1565b815260200190815260200160002060006101000a8154816001600160a01b0302191690836001600160a01b031602179055503360026000600160008054905061044e9190610cd1565b815260200190815260200160002060006101000a8154816001600160a01b0302191690836001600160a01b031602179055507fc25c419872d2e17103999354ec345e4fe28b74a2eeb9aebf8f9439d5aa0dd8f133828a8a6040516104b59493929190610a28565b60405180910390a1979650505050505050565b60008060608060008086815481106104e2576104e2610a71565b9060005260206000200160009054906101000a90046001600160a01b0316905080816001600160a01b0316638da5cb5b6040518163ffffffff1660e01b8152600401602060405180830381865afa158015610541573d6000803e3d6000fd5b505050506040513d601f19601f820116820180604052508101906105659190610b6c565b826001600160a01b03166306fdde036040518163ffffffff1660e01b8152600401600060405180830381865afa1580156105a3573d6000803e3d6000fd5b505050506040513d6000823e601f3d908101601f191682016040526105cb9190810190610b9c565b836001600160a01b0316635b2bd79e6040518163ffffffff1660e01b8152600401600060405180830381865afa158015610609573d6000803e3d6000fd5b505050506040513d6000823e601f3d908101601f191682016040526106319190810190610b9c565b9450945094509450509193509193565b612b5f80610cf983390190565b60006020828403121561066057600080fd5b5035919050565b6000806040838503121561067a57600080fd5b50508035926020909101359150565b60005b838110156106a457818101518382015260200161068c565b50506000910152565b600081518084526106c5816020860160208601610689565b601f01601f19169290920160200192915050565b6001600160a01b0388811682528716602082015260e060408201819052600090610705908301886106ad565b828103606084015261071781886106ad565b6080840196909652505060a081019290925260c090910152949350505050565b634e487b7160e01b600052604160045260246000fd5b60405160a0810167ffffffffffffffff8111828210171561077057610770610737565b60405290565b604051601f8201601f1916810167ffffffffffffffff8111828210171561079f5761079f610737565b604052919050565b600067ffffffffffffffff8211156107c1576107c1610737565b50601f01601f191660200190565b600082601f8301126107e057600080fd5b81356107f36107ee826107a7565b610776565b81815284602083860101111561080857600080fd5b816020850160208301376000918101602001919091529392505050565b600067ffffffffffffffff82111561083f5761083f610737565b5060051b60200190565b600082601f83011261085a57600080fd5b8135602061086a6107ee83610825565b8083825260208201915060208460051b87010193508684111561088c57600080fd5b602086015b848110156108a85780358352918301918301610891565b509695505050505050565b600082601f8301126108c457600080fd5b813560206108d46107ee83610825565b82815260059290921b840181019181810190868411156108f357600080fd5b8286015b848110156108a857803567ffffffffffffffff8111156109175760008081fd5b6109258986838b01016107cf565b8452509183019183016108f7565b60008060008060008060c0878903121561094c57600080fd5b863567ffffffffffffffff8082111561096457600080fd5b6109708a838b016107cf565b9750602089013591508082111561098657600080fd5b6109928a838b016107cf565b965060408901359150808211156109a857600080fd5b6109b48a838b01610849565b955060608901359150808211156109ca57600080fd5b6109d68a838b016108b3565b945060808901359150808211156109ec57600080fd5b6109f88a838b01610849565b935060a0890135915080821115610a0e57600080fd5b50610a1b89828a01610849565b9150509295509295509295565b6001600160a01b03858116825284166020820152608060408201819052600090610a54908301856106ad565b8281036060840152610a6681856106ad565b979650505050505050565b634e487b7160e01b600052603260045260246000fd5b600082601f830112610a9857600080fd5b8151610aa66107ee826107a7565b818152846020838601011115610abb57600080fd5b610acc826020830160208701610689565b949350505050565b600060208284031215610ae657600080fd5b815167ffffffffffffffff80821115610afe57600080fd5b9083019060a08286031215610b1257600080fd5b610b1a61074d565b825182811115610b2957600080fd5b610b3587828601610a87565b8252506020830151602082015260408301516040820152606083015160608201526080830151608082015280935050505092915050565b600060208284031215610b7e57600080fd5b81516001600160a01b0381168114610b9557600080fd5b9392505050565b600060208284031215610bae57600080fd5b815167ffffffffffffffff811115610bc557600080fd5b610acc84828501610a87565b60008151808452602080850194506020840160005b83811015610c0257815187529582019590820190600101610be6565b509495945050505050565b60c081526000610c2060c08301896106ad565b602083820381850152610c33828a6106ad565b915083820360408501528188518084528284019150828160051b850101838b0160005b83811015610c8457601f19878403018552610c728383516106ad565b94860194925090850190600101610c56565b50508681036060880152610c98818b610bd1565b9450505050508281036080840152610cb08186610bd1565b905082810360a0840152610cc48185610bd1565b9998505050505050505050565b81810381811115610cf257634e487b7160e01b600052601160045260246000fd5b9291505056fe608060405234801561001057600080fd5b50604051612b5f380380612b5f83398101604081905261002f91610500565b338561003a816102b8565b506001600160a01b03811661006a57604051631e4fbdf760e01b8152600060048201526024015b60405180910390fd5b610073816102c8565b5082518451146100b75760405162461bcd60e51b815260206004820152600f60248201526e098cadccee8d040dad2e6dac2e8c6d608b1b6044820152606401610061565b81518351146100fa5760405162461bcd60e51b815260206004820152600f60248201526e098cadccee8d040dad2e6dac2e8c6d608b1b6044820152606401610061565b805182511461013d5760405162461bcd60e51b815260206004820152600f60248201526e098cadccee8d040dad2e6dac2e8c6d608b1b6044820152606401610061565b60005b835181101561024b576040518060a00160405280868381518110610166576101666105f4565b60200260200101518152602001858381518110610185576101856105f4565b602002602001015181526020018483815181106101a4576101a46105f4565b602002602001015181526020018383815181106101c3576101c36105f4565b602002602001015181526020016000815250600660008684815181106101eb576101eb6105f4565b6020026020010151815260200190815260200160002060008201518160000190816102169190610695565b506020820151600180830191909155604083015160028301556060830151600383015560809092015160049091015501610140565b5060046102588682610695565b5060056102658782610695565b50306001600160a01b03167f049d2b1cd8ae2fa187e026006a2e23f56339cd3ceb660d2e65dde58a14861e97848685856040516102a59493929190610790565b60405180910390a2505050505050610842565b60026102c48282610695565b5050565b600380546001600160a01b038381166001600160a01b0319831681179093556040519116919082907f8be0079c531659141344cd1fd0a4f28419497f9722a3daafe3b4186f6b6457e090600090a35050565b634e487b7160e01b600052604160045260246000fd5b604051601f8201601f191681016001600160401b03811182821017156103585761035861031a565b604052919050565b60005b8381101561037b578181015183820152602001610363565b50506000910152565b600082601f83011261039557600080fd5b81516001600160401b038111156103ae576103ae61031a565b6103c1601f8201601f1916602001610330565b8181528460208386010111156103d657600080fd5b6103e7826020830160208701610360565b949350505050565b60006001600160401b038211156104085761040861031a565b5060051b60200190565b600082601f83011261042357600080fd5b81516020610438610433836103ef565b610330565b82815260059290921b8401810191818101908684111561045757600080fd5b8286015b848110156104965780516001600160401b0381111561047a5760008081fd5b6104888986838b0101610384565b84525091830191830161045b565b509695505050505050565b600082601f8301126104b257600080fd5b815160206104c2610433836103ef565b8083825260208201915060208460051b8701019350868411156104e457600080fd5b602086015b8481101561049657805183529183019183016104e9565b60008060008060008060c0878903121561051957600080fd5b86516001600160401b038082111561053057600080fd5b61053c8a838b01610384565b9750602089015191508082111561055257600080fd5b61055e8a838b01610384565b9650604089015191508082111561057457600080fd5b6105808a838b01610412565b9550606089015191508082111561059657600080fd5b6105a28a838b016104a1565b945060808901519150808211156105b857600080fd5b6105c48a838b016104a1565b935060a08901519150808211156105da57600080fd5b506105e789828a016104a1565b9150509295509295509295565b634e487b7160e01b600052603260045260246000fd5b600181811c9082168061061e57607f821691505b60208210810361063e57634e487b7160e01b600052602260045260246000fd5b50919050565b601f821115610690576000816000526020600020601f850160051c8101602086101561066d5750805b601f850160051c820191505b8181101561068c57828155600101610679565b5050505b505050565b81516001600160401b038111156106ae576106ae61031a565b6106c2816106bc845461060a565b84610644565b602080601f8311600181146106f757600084156106df5750858301515b600019600386901b1c1916600185901b17855561068c565b600085815260208120601f198616915b8281101561072657888601518255948401946001909101908401610707565b50858210156107445787850151600019600388901b60f8161c191681555b5050505050600190811b01905550565b60008151808452602080850194506020840160005b8381101561078557815187529582019590820190600101610769565b509495945050505050565b6080815260006107a36080830187610754565b6020838203818501528187518084528284019150828160051b850101838a0160005b8381101561080b57601f1980888503018652825180518086526107ed818a88018b8501610360565b96880196601f019091169390930186019250908501906001016107c5565b5050868103604088015261081f818a610754565b94505050505082810360608401526108378185610754565b979650505050505050565b61230e806108516000396000f3fe6080604052600436106101345760003560e01c8063715018a6116100ab578063b4b5b48f1161006f578063b4b5b48f1461037f578063e985e9c5146103b0578063f221c20c146103d0578063f2295b1d146103f0578063f242432a14610410578063f2fde38b1461043057600080fd5b8063715018a6146102ba5780638da5cb5b146102cf5780639ba133cf146102f7578063a22cb46514610332578063b09afec11461035257600080fd5b8063156e29f6116100fd578063156e29f6146102005780632eb2c2d61461021357806338e21cce146102335780633ccfd60b146102635780634e1273f4146102785780635b2bd79e146102a557600080fd5b8062fdd58e1461013957806301ffc9a71461016c57806302fe53051461019c57806306fdde03146101be5780630e89341c146101e0575b600080fd5b34801561014557600080fd5b506101596101543660046118f8565b610450565b6040519081526020015b60405180910390f35b34801561017857600080fd5b5061018c610187366004611938565b610478565b6040519015158152602001610163565b3480156101a857600080fd5b506101bc6101b73660046119fb565b6104c8565b005b3480156101ca57600080fd5b506101d3610513565b6040516101639190611a9c565b3480156101ec57600080fd5b506101d36101fb366004611aaf565b6105a1565b6101bc61020e366004611ac8565b6105d5565b34801561021f57600080fd5b506101bc61022e366004611bae565b6108ad565b34801561023f57600080fd5b5061018c61024e366004611c58565b60086020526000908152604090205460ff1681565b34801561026f57600080fd5b506101bc610914565b34801561028457600080fd5b50610298610293366004611c73565b610a2e565b6040516101639190611d6f565b3480156102b157600080fd5b506101d3610afb565b3480156102c657600080fd5b506101bc610b08565b3480156102db57600080fd5b506003546040516001600160a01b039091168152602001610163565b34801561030357600080fd5b5061018c610312366004611d82565b600760209081526000928352604080842090915290825290205460ff1681565b34801561033e57600080fd5b506101bc61034d366004611dae565b610b1c565b34801561035e57600080fd5b5061037261036d366004611aaf565b610b2b565b6040516101639190611dea565b34801561038b57600080fd5b5061039f61039a366004611aaf565b610c64565b604051610163959493929190611e3a565b3480156103bc57600080fd5b5061018c6103cb366004611e71565b610d1a565b3480156103dc57600080fd5b506101bc6103eb366004611e9b565b610d48565b3480156103fc57600080fd5b506101bc61040b366004611e9b565b610e62565b34801561041c57600080fd5b506101bc61042b366004611f1a565b610f78565b34801561043c57600080fd5b506101bc61044b366004611c58565b610fd7565b6000818152602081815260408083206001600160a01b03861684529091529020545b92915050565b60006001600160e01b03198216636cdb3d1360e11b14806104a957506001600160e01b031982166303a24d0760e21b145b8061047257506301ffc9a760e01b6001600160e01b0319831614610472565b6104d0611015565b6104d981611042565b7fe3afa94108b5f5e82e5f6e539d161ff4b5402a85f696c67b9768ec3ae54ce366816040516105089190611a9c565b60405180910390a150565b6005805461052090611f7f565b80601f016020809104026020016040519081016040528092919081815260200182805461054c90611f7f565b80156105995780601f1061056e57610100808354040283529160200191610599565b820191906000526020600020905b81548152906001019060200180831161057c57829003601f168201915b505050505081565b606060046105ae8361104e565b6040516020016105bf929190611fb9565b6040516020818303038152906040529050919050565b60008281526006602052604090206003015461060c5760405162461bcd60e51b815260040161060390612050565b60405180910390fd5b600082815260076020908152604080832033845290915290205460ff166106865760405162461bcd60e51b815260206004820152602860248201527f43616c6c6572206973206e6f742077686974656c697374656420666f7220746860448201526734b9903a37b5b2b760c11b6064820152608401610603565b3360009081526008602052604090205460ff16156106f05760405162461bcd60e51b815260206004820152602160248201527f43616c6c65722068617320616c7265616479206d696e746564206120746f6b656044820152603760f91b6064820152608401610603565b8060011461074a5760405162461bcd60e51b815260206004820152602160248201527f43616e206f6e6c79206d696e74206f6e6520746f6b656e20617420612074696d6044820152606560f81b6064820152608401610603565b6000828152600660205260409020600281015461076890839061209d565b34146107b65760405162461bcd60e51b815260206004820181905260248201527f496e73756666696369656e74207061796d656e7420666f72206d696e74696e676044820152606401610603565b80600301548282600401546107cb91906120b4565b11156108125760405162461bcd60e51b815260206004820152601660248201527545786365656473206d6178696d756d20737570706c7960501b6044820152606401610603565b61082d848484604051806020016040528060008152506110e1565b8181600401600082825461084191906120b4565b90915550503360009081526008602052604090819020805460ff191660011790555183906001600160a01b038616907f96234cb3d6c373a1aaa06497a540bc166d4b0359243a088eaf95e21d7253d0be9061089f9086815260200190565b60405180910390a350505050565b336001600160a01b03861681148015906108ce57506108cc8682610d1a565b155b156108ff5760405163711bec9160e11b81526001600160a01b03808316600483015287166024820152604401610603565b61090c868686868661113e565b505050505050565b61091c611015565b478061096a5760405162461bcd60e51b815260206004820152601960248201527f4e6f206574686572206c65667420746f207769746864726177000000000000006044820152606401610603565b604051600090339083908381818185875af1925050503d80600081146109ac576040519150601f19603f3d011682016040523d82523d6000602084013e6109b1565b606091505b50509050806109f55760405162461bcd60e51b815260206004820152601060248201526f2a3930b739b332b9103330b4b632b21760811b6044820152606401610603565b60405182815233907f7fcf532c15f0a6db0bd6d0e038bea71d30d808c7d98cb3bf7268a95bf5081b659060200160405180910390a25050565b60608151835114610a5f5781518351604051635b05999160e01b815260048101929092526024820152604401610603565b6000835167ffffffffffffffff811115610a7b57610a7b61195c565b604051908082528060200260200182016040528015610aa4578160200160208202803683370190505b50905060005b8451811015610af357602080820286010151610ace90602080840287010151610450565b828281518110610ae057610ae06120c7565b6020908102919091010152600101610aaa565b509392505050565b6004805461052090611f7f565b610b10611015565b610b1a60006111a5565b565b610b273383836111f7565b5050565b610b5d6040518060a0016040528060608152602001600081526020016000815260200160008152602001600081525090565b600082815260066020526040902060030154610b8b5760405162461bcd60e51b815260040161060390612050565b60008281526006602052604090819020815160a08101909252805482908290610bb390611f7f565b80601f0160208091040260200160405190810160405280929190818152602001828054610bdf90611f7f565b8015610c2c5780601f10610c0157610100808354040283529160200191610c2c565b820191906000526020600020905b815481529060010190602001808311610c0f57829003601f168201915b505050505081526020016001820154815260200160028201548152602001600382015481526020016004820154815250509050919050565b600660205260009081526040902080548190610c7f90611f7f565b80601f0160208091040260200160405190810160405280929190818152602001828054610cab90611f7f565b8015610cf85780601f10610ccd57610100808354040283529160200191610cf8565b820191906000526020600020905b815481529060010190602001808311610cdb57829003601f168201915b5050505050908060010154908060020154908060030154908060040154905085565b6001600160a01b03918216600090815260016020908152604080832093909416825291909152205460ff1690565b610d50611015565b600083815260066020526040902060030154610d7e5760405162461bcd60e51b815260040161060390612050565b60005b81811015610e5c57600084815260076020526040812081858585818110610daa57610daa6120c7565b9050602002016020810190610dbf9190611c58565b6001600160a01b031681526020810191909152604001600020805460ff1916911515919091179055828282818110610df957610df96120c7565b9050602002016020810190610e0e9190611c58565b6001600160a01b0316847f6ac489d45eb8bf1a970353adde961baf16a2ab4af3d2a8f0cb488b0cd30af8566000604051610e4c911515815260200190565b60405180910390a3600101610d81565b50505050565b610e6a611015565b600083815260066020526040902060030154610e985760405162461bcd60e51b815260040161060390612050565b60005b81811015610e5c576000848152600760205260408120600191858585818110610ec657610ec66120c7565b9050602002016020810190610edb9190611c58565b6001600160a01b031681526020810191909152604001600020805460ff1916911515919091179055828282818110610f1557610f156120c7565b9050602002016020810190610f2a9190611c58565b6001600160a01b0316847f6ac489d45eb8bf1a970353adde961baf16a2ab4af3d2a8f0cb488b0cd30af8566001604051610f68911515815260200190565b60405180910390a3600101610e9b565b336001600160a01b0386168114801590610f995750610f978682610d1a565b155b15610fca5760405163711bec9160e11b81526001600160a01b03808316600483015287166024820152604401610603565b61090c868686868661128d565b610fdf611015565b6001600160a01b03811661100957604051631e4fbdf760e01b815260006004820152602401610603565b611012816111a5565b50565b6003546001600160a01b03163314610b1a5760405163118cdaa760e01b8152336004820152602401610603565b6002610b27828261212a565b6060600061105b8361131b565b600101905060008167ffffffffffffffff81111561107b5761107b61195c565b6040519080825280601f01601f1916602001820160405280156110a5576020820181803683370190505b5090508181016020015b600019016f181899199a1a9b1b9c1cb0b131b232b360811b600a86061a8153600a85049450846110af57509392505050565b6001600160a01b03841661110b57604051632bfa23e760e11b815260006004820152602401610603565b6040805160018082526020820186905281830190815260608201859052608082019092529061090c6000878484876113f3565b6001600160a01b03841661116857604051632bfa23e760e11b815260006004820152602401610603565b6001600160a01b03851661119157604051626a0d4560e21b815260006004820152602401610603565b61119e85858585856113f3565b5050505050565b600380546001600160a01b038381166001600160a01b0319831681179093556040519116919082907f8be0079c531659141344cd1fd0a4f28419497f9722a3daafe3b4186f6b6457e090600090a35050565b6001600160a01b0382166112205760405162ced3e160e81b815260006004820152602401610603565b6001600160a01b03838116600081815260016020908152604080832094871680845294825291829020805460ff191686151590811790915591519182527f17307eab39ab6107e8899845ad3d59bd9653f200f220920489ca2b5937696c31910160405180910390a3505050565b6001600160a01b0384166112b757604051632bfa23e760e11b815260006004820152602401610603565b6001600160a01b0385166112e057604051626a0d4560e21b815260006004820152602401610603565b6040805160018082526020820186905281830190815260608201859052608082019092529061131287878484876113f3565b50505050505050565b60008072184f03e93ff9f4daa797ed6e38ed64bf6a1f0160401b831061135a5772184f03e93ff9f4daa797ed6e38ed64bf6a1f0160401b830492506040015b6d04ee2d6d415b85acef81000000008310611386576d04ee2d6d415b85acef8100000000830492506020015b662386f26fc1000083106113a457662386f26fc10000830492506010015b6305f5e10083106113bc576305f5e100830492506008015b61271083106113d057612710830492506004015b606483106113e2576064830492506002015b600a83106104725760010192915050565b6113ff85858585611446565b6001600160a01b0384161561119e578251339060010361143857602084810151908401516114318389898585896114bb565b505061090c565b61090c8187878787876115df565b6001600160a01b038416158061146357506001600160a01b038316155b6114af5760405162461bcd60e51b815260206004820152601960248201527f5342543a207472616e73666572206e6f7420616c6c6f776564000000000000006044820152606401610603565b610e5c848484846116c8565b6001600160a01b0384163b1561090c5760405163f23a6e6160e01b81526001600160a01b0385169063f23a6e61906114ff90899089908890889088906004016121ea565b6020604051808303816000875af192505050801561153a575060408051601f3d908101601f191682019092526115379181019061222f565b60015b6115a3573d808015611568576040519150601f19603f3d011682016040523d82523d6000602084013e61156d565b606091505b50805160000361159b57604051632bfa23e760e11b81526001600160a01b0386166004820152602401610603565b805181602001fd5b6001600160e01b0319811663f23a6e6160e01b1461131257604051632bfa23e760e11b81526001600160a01b0386166004820152602401610603565b6001600160a01b0384163b1561090c5760405163bc197c8160e01b81526001600160a01b0385169063bc197c8190611623908990899088908890889060040161224c565b6020604051808303816000875af192505050801561165e575060408051601f3d908101601f1916820190925261165b9181019061222f565b60015b61168c573d808015611568576040519150601f19603f3d011682016040523d82523d6000602084013e61156d565b6001600160e01b0319811663bc197c8160e01b1461131257604051632bfa23e760e11b81526001600160a01b0386166004820152602401610603565b80518251146116f75781518151604051635b05999160e01b815260048101929092526024820152604401610603565b3360005b83518110156117fd576020818102858101820151908501909101516001600160a01b038816156117ae576000828152602081815260408083206001600160a01b038c16845290915290205481811015611787576040516303dee4c560e01b81526001600160a01b038a166004820152602481018290526044810183905260648101849052608401610603565b6000838152602081815260408083206001600160a01b038d16845290915290209082900390555b6001600160a01b038716156117f3576000828152602081815260408083206001600160a01b038b168452909152812080548392906117ed9084906120b4565b90915550505b50506001016116fb565b50825160010361187e5760208301516000906020840151909150856001600160a01b0316876001600160a01b0316846001600160a01b03167fc3d58168c5ae7397731d063d5bbf3d657854427343f4c083240f7aacaa2d0f62858560405161186f929190918252602082015260400190565b60405180910390a4505061119e565b836001600160a01b0316856001600160a01b0316826001600160a01b03167f4a39dc06d4c0dbc64b70af90fd698a233a518aa5d07e595d983b8c0526c8f7fb86866040516118cd9291906122aa565b60405180910390a45050505050565b80356001600160a01b03811681146118f357600080fd5b919050565b6000806040838503121561190b57600080fd5b611914836118dc565b946020939093013593505050565b6001600160e01b03198116811461101257600080fd5b60006020828403121561194a57600080fd5b813561195581611922565b9392505050565b634e487b7160e01b600052604160045260246000fd5b604051601f8201601f1916810167ffffffffffffffff8111828210171561199b5761199b61195c565b604052919050565b600067ffffffffffffffff8311156119bd576119bd61195c565b6119d0601f8401601f1916602001611972565b90508281528383830111156119e457600080fd5b828260208301376000602084830101529392505050565b600060208284031215611a0d57600080fd5b813567ffffffffffffffff811115611a2457600080fd5b8201601f81018413611a3557600080fd5b611a44848235602084016119a3565b949350505050565b60005b83811015611a67578181015183820152602001611a4f565b50506000910152565b60008151808452611a88816020860160208601611a4c565b601f01601f19169290920160200192915050565b6020815260006119556020830184611a70565b600060208284031215611ac157600080fd5b5035919050565b600080600060608486031215611add57600080fd5b611ae6846118dc565b95602085013595506040909401359392505050565b600067ffffffffffffffff821115611b1557611b1561195c565b5060051b60200190565b600082601f830112611b3057600080fd5b81356020611b45611b4083611afb565b611972565b8083825260208201915060208460051b870101935086841115611b6757600080fd5b602086015b84811015611b835780358352918301918301611b6c565b509695505050505050565b600082601f830112611b9f57600080fd5b611955838335602085016119a3565b600080600080600060a08688031215611bc657600080fd5b611bcf866118dc565b9450611bdd602087016118dc565b9350604086013567ffffffffffffffff80821115611bfa57600080fd5b611c0689838a01611b1f565b94506060880135915080821115611c1c57600080fd5b611c2889838a01611b1f565b93506080880135915080821115611c3e57600080fd5b50611c4b88828901611b8e565b9150509295509295909350565b600060208284031215611c6a57600080fd5b611955826118dc565b60008060408385031215611c8657600080fd5b823567ffffffffffffffff80821115611c9e57600080fd5b818501915085601f830112611cb257600080fd5b81356020611cc2611b4083611afb565b82815260059290921b84018101918181019089841115611ce157600080fd5b948201945b83861015611d0657611cf7866118dc565b82529482019490820190611ce6565b96505086013592505080821115611d1c57600080fd5b50611d2985828601611b1f565b9150509250929050565b60008151808452602080850194506020840160005b83811015611d6457815187529582019590820190600101611d48565b509495945050505050565b6020815260006119556020830184611d33565b60008060408385031215611d9557600080fd5b82359150611da5602084016118dc565b90509250929050565b60008060408385031215611dc157600080fd5b611dca836118dc565b915060208301358015158114611ddf57600080fd5b809150509250929050565b602081526000825160a06020840152611e0660c0840182611a70565b9050602084015160408401526040840151606084015260608401516080840152608084015160a08401528091505092915050565b60a081526000611e4d60a0830188611a70565b90508560208301528460408301528360608301528260808301529695505050505050565b60008060408385031215611e8457600080fd5b611e8d836118dc565b9150611da5602084016118dc565b600080600060408486031215611eb057600080fd5b83359250602084013567ffffffffffffffff80821115611ecf57600080fd5b818601915086601f830112611ee357600080fd5b813581811115611ef257600080fd5b8760208260051b8501011115611f0757600080fd5b6020830194508093505050509250925092565b600080600080600060a08688031215611f3257600080fd5b611f3b866118dc565b9450611f49602087016118dc565b93506040860135925060608601359150608086013567ffffffffffffffff811115611f7357600080fd5b611c4b88828901611b8e565b600181811c90821680611f9357607f821691505b602082108103611fb357634e487b7160e01b600052602260045260246000fd5b50919050565b6000808454611fc781611f7f565b60018281168015611fdf5760018114611ff457612023565b60ff1984168752821515830287019450612023565b8860005260208060002060005b8581101561201a5781548a820152908401908201612001565b50505082870194505b505050508351612037818360208801611a4c565b64173539b7b760d91b9101908152600501949350505050565b60208082526017908201527f546f6b656e20494420646f6573206e6f74206578697374000000000000000000604082015260600190565b634e487b7160e01b600052601160045260246000fd5b808202811582820484141761047257610472612087565b8082018082111561047257610472612087565b634e487b7160e01b600052603260045260246000fd5b601f821115612125576000816000526020600020601f850160051c810160208610156121065750805b601f850160051c820191505b8181101561090c57828155600101612112565b505050565b815167ffffffffffffffff8111156121445761214461195c565b612158816121528454611f7f565b846120dd565b602080601f83116001811461218d57600084156121755750858301515b600019600386901b1c1916600185901b17855561090c565b600085815260208120601f198616915b828110156121bc5788860151825594840194600190910190840161219d565b50858210156121da5787850151600019600388901b60f8161c191681555b5050505050600190811b01905550565b6001600160a01b03868116825285166020820152604081018490526060810183905260a06080820181905260009061222490830184611a70565b979650505050505050565b60006020828403121561224157600080fd5b815161195581611922565b6001600160a01b0386811682528516602082015260a06040820181905260009061227890830186611d33565b828103606084015261228a8186611d33565b9050828103608084015261229e8185611a70565b98975050505050505050565b6040815260006122bd6040830185611d33565b82810360208401526122cf8185611d33565b9594505050505056fea264697066735822122027b6baf2367dac1714b07ef4032149aecdb05e0d09cc6b533716509057be351264736f6c63430008190033a2646970667358221220a7a2a0528fd5c36a35796281d8f45e807b172a09b3d58d3aaad9eea4bafe5a5a64736f6c63430008190033",
        "linkReferences": {}
    },
    "methodIdentifiers": {
        "deploySBT(string,string,uint256[],string[],uint256[],uint256[])": "659eb45c",
        "getSBTByIndex(uint256)": "cdb3d483",
        "getSBTDetailsbyIndexAndId(uint256,uint256)": "5b949a3f",
        "indexToContract(uint256)": "ba535b8e",
        "indexToOwner(uint256)": "cd78aefb",
        "tokens(uint256)": "4f64b2be"
    },
    "id": 35
}